:020000040800F2
:10000000800A00206D020008F13700080B36000856
:10001000ED37000849140008B94800080000000046
:10002000000000000000000000000000D5400008B3
:100030001918000800000000E93900089141000883
:10004000870200088702000887020008870200086C
:10005000870200088702000887020008870200085C
:10006000870200088702000887020008870200084C
:10007000870200088702000887020008870200083C
:10008000870200088702000887020008870200082C
:10009000D9140008870200088702000887020008B8
:1000A000870200088702000887020008870200080C
:1000B00087020008FD410008870200088702000847
:1000C00087020008870200088702000887020008EC
:1000D00087020008C9470008194800086948000855
:1000E00087020008870200088702000887020008CC
:1000F00087020008870200088702000887020008BC
:1001000087020008870200088702000887020008AB
:10011000870200088702000887020008870200089B
:10012000870200088702000887020008870200088B
:10013000870200088702000887020008870200087B
:10014000870200088702000887020008870200086B
:10015000870200088702000887020008870200085B
:10016000870200088702000887020008870200084B
:1001700087020008870200088702000800000000CC
:10018000870200088702000887020008870200082B
:10019000870200088702000887020008870200081B
:1001A00087020008870200088702000800F002F8B2
:1001B00000F04CF80AA090E8000C82448344AAF1B5
:1001C0000107DA4501D100F041F8AFF2090EBAE8B3
:1001D0000F0013F0010F18BFFB1A43F0010318477B
:1001E0002870000048700000103A24BF78C878C119
:1001F000FAD8520724BF30C830C144BF04680C602D
:10020000704700000023002400250026103A28BF74
:1002100078C1FBD8520728BF30C148BF0B60704778
:10022000662906F04E87642900F04E800020704752
:100230001FB506F03CFF00F09BFB040000200021EE
:1002400006F0E6FBE0601FBD10B510BD00F0A8FC95
:100250001146FFF7EDFF05F08DFF00F0C6FC03B47B
:10026000FFF7F2FF03BC04F0AAFC00000948804736
:1002700009480047FEE7FEE7FEE7FEE7FEE7FEE788
:10028000FEE7FEE7FEE7FEE704480549054A064BA0
:100290007047000099410008AD010008800400206B
:1002A000800A0020800600208006002070470000A1
:1002B0000FB4044910B503AA029800F047FB10BC24
:1002C0005DF814FB1C0000202DE9F04106460024D7
:1002D00010687529314616A510D0AFF300800028AC
:1002E00002DA404213A507E031688A0701D512A55A
:1002F00002E0490704D511A5012401E0AFF3008015
:1003000000210A2206F1240709E0B0FBF2FCB0FB51
:10031000F2F302FB1C00303078541846491C0028C8
:10032000F3D123462A463046BDE8F04100F0A8B894
:10033000000000002D0000002B0000002000000045
:100340002DE9F05F894604464FF0000ADFF824B13A
:10035000FB44C0F820A02046E168884700287DD0F3
:10036000252806D0D4E901219047206A401C20624C
:10037000F1E700255F462046E168884720280646C9
:1003800007DB312E05D2B81910F8200C08B105434F
:10039000F1E7A80701D525F00405C4F81CA0002743
:1003A000C4F818A02A2E09D0304604F001FC38B356
:1003B00004EB8708303EC8F8186019E059F8041BB0
:1003C000204604EB87029161E1688847012F0646C9
:1003D00018D1E069002820DA25F020051DE0D8F8C2
:1003E000180000EB800006EB40003038C8F8180019
:1003F0002046E1688847064604F0DAFB0028EED183
:10040000012F0AD02E2E08D12046E16888477F1C94
:100410000646022F45F02005C4DBA069002803DA58
:10042000404245F00105A061E80701D025F0100524
:10043000A6B1A6F14100192802D8203645F400657E
:100440004A463146204625604D46FFF7E9FE60B139
:10045000012807D0ED1D25F0070000E007E000F1BE
:10046000080978E705F1040975E730467AE7206A5C
:10047000BDE8F09F826D000070477047704770477D
:100480002DE9F0470D4699469246044600F12408AE
:100490000168880604D5E06921F01001216000E0C0
:1004A0000120A84201DD471B00E00027A1697A195D
:1004B00002EB0900081AA0612078C00602D4204689
:1004C000AFF30080002608E0D4E901211AF8060005
:1004D0009047206A401C761C20624E45F4DB207851
:1004E000C0060AD52046AFF3008006E0D4E901211A
:1004F00030209047206A401C2062381EA7F1010777
:10050000F4DC07E0D4E9012118F805009047206ADF
:10051000401C2062281EA5F10105F3DC2046AFF344
:1005200000802078000602D50220BDE8F087012077
:10053000FBE770472DE9FF4F0C461E464FF0FF3793
:100540008BB0D2E90001DDF860800A908A46C1F3E1
:100550000A5505B93D46002108464FF00000BAF1A2
:10056000000F00F4400005DA00EB80004FF440017A
:1005700001EA50004FEA9059B9F1010F00DDB94688
:100580000A9850EA4A000ED044F61050A5F2FF3502
:1005900045432F14B8F1000F1ED07542291E1EDDF1
:1005A000C9F100021CE0B8F1010F4FF0000001D0CA
:1005B000302103E0F24305E02154401CB042FBDB54
:1005C00030460022002121540B99C1F80880C1E96E
:1005D00000200FB0BDE8F08FBD1B6D1CDEE74A4662
:1005E00000DA694206A800F065FA06AB93E8070056
:1005F00003AB83E8070050460A9900F03FFB8DE803
:100600000700A0F500501F3800900398002D09DD69
:1006100042F21F014A46084403A90390684600F0CD
:100620009EFD08E0A0F500504A461F3803A903903C
:10063000684600F0A8FD8DE807000004000C03D018
:100640004FF0FF30410800E01046B8F1000F03D032
:100650000022009215461EE0751E05D400F08CF9AC
:10066000303262556D1EF9D5B3460122084302D0DF
:1006700000227F1C04E02078302801D100227F1E58
:10068000002A099786D01DE0112D07DA00F074F9D1
:10069000303262556D1C50EA0102F5D1084302D098
:1006A0000098C8B10EE00021681E05E0235C625C82
:1006B00063542254401E491C8142F7DBAB46A81B01
:1006C000401E0990002004F80B000B98099AC0F80E
:1006D0000880C0E9002B7CE711264FF0000859E79D
:1006E0002DE9F04F88460446D21D22F0070191B053
:1006F000D1E90001CDE90A0104F042FA02460B9863
:10070000C00F01D02D2007E02068810701D52B20E4
:1007100002E0202101EAC000032A099001D0072A43
:1007200005DB03464146204600F084F90BE12078C2
:10073000800601D5E06900E00620B8F1650F81462A
:1007400006D0B8F1660F18D0B8F1670F70D131E05C
:100750000020B9F1110F009001DB112301E009F134
:1007600001030AAA01A90CA8FFF7E4FEDDE90C7059
:10077000002609F10105834647E001204B46009021
:100780004FF000470AAA01A90CA8FFF7D3FEDDE944
:100790000DB00C995D46002610B909F101000D1845
:1007A000B9EB050003D4C0F1FF3609F10105A5EB53
:1007B00009002BE0B9F1010F01DA4FF00109002027
:1007C000B9F1110F0090484601DD112300E0034606
:1007D0000AAA01A90CA8FFF7ADFEDDE90C704D4691
:1007E00000268346207800070AD4AB4500DA5D4630
:1007F00001A8012D04DD411911F8011C302907D091
:100800004F4502DA17F1040F04DA012082460FE0A7
:100810006D1EEEE7002F02DCED1B3E4403E0781C6A
:10082000A84200DD7D1CB81B00F1010A4FF0004713
:100830002078000703D4AA4501DB4FF0FF3A0021DE
:10084000B7F1004F0DF143088DF8431024D002207A
:100850002B23002F01DA7F422D230A21021EA0F153
:10086000010000DC5FB197FBF1FC97FBF1F201FBAB
:100870001C7C17460CF1300C08F801CDEEE7A8F10E
:10088000010003702188090501D5452100E065219B
:10089000A0F1010800F8011C09980FA9A1EB0807B5
:1008A000FF1D00B10120411901EBEA70A169384434
:1008B000081A401EA0612078C00602D42046AFF37B
:1008C0000080099828B1D4E901219047206A401C92
:1008D00020622078C00622D52046AFF300801EE0BB
:1008E000002E04DBB34502DD01A8805D00E030206E
:1008F000D4E901219047206A401C2062761CAAF1AD
:1009000001005FEA000A0AD100F032F8C06801680D
:10091000405CD4E901219047206A401C2062281ED7
:10092000A5F10105DCDC07E0D4E9012118F8010B91
:100930009047206A401C2062381EA7F10107F3DCB3
:100940002046AFF30080032011B043E6074B70B59B
:100950000D467B4400F05BF80446284600F018F989
:1009600010B14FF0FF3070BD204670BD1B47000036
:10097000004870473C04002030B5B0F10A024FEA4D
:10098000900E71F100034EEA817EB0EB0E0061EB38
:1009900091014FEA101E4EEA017E10EB0E0041EB72
:1009A00011114FEA102E4EEA016E10EB0E0041EBD2
:1009B00011214FEA104E4EEA014E10EB0E0041EBB2
:1009C0001141401841F100014FEAD00040EA417066
:1009D0004FEAD10110EB80054FEA810444EA90749C
:1009E00044EB01046D1944EB0404521BA3414FF086
:1009F000000348BF0A3200D530BD401C41F1000160
:100A000030BD000001694A1C02610878704700B5DA
:100A10008FB0CDE901310021059105497944CDE937
:100A2000031011466846FFF78BFC0FB000BD0000B5
:100A3000E5FFFFFF2DE9F0411F460446032601684C
:100A4000072A01F4006004DB08B116A505E016A52D
:100A500003E008B115A500E015A521F01000206005
:100A6000A069C01EA0610FB1401EA0612046AFF377
:100A700000804FB1D4E9012138469047206A401CDC
:100A80002062C01C206206E0206AFAE7D4E9012156
:100A900015F8010B9047761EF8D22046AFF3008080
:100AA000BDE8F0814E414E006E616E00494E460039
:100AB000696E66002DE9F047814616468AB03348D4
:100AC00078440DC88DE80D0030487844801C03AC94
:100AD0000DC884E80D0041F69B300844372190FB97
:100AE000F1F290FBF1F5A5F1800501FB12041B3C2E
:100AF00002D56442012000E00020DFF890A080468B
:100B00000027FA44AAF1BE0A0DE0E00709D03246F8
:100B1000684607EB47010AEB810100F034FB8DE8E2
:100B2000070064107F1C002CEFD1184F7F44AC3FAE
:100B300018E0E80714D007EB04100DF1180A90E84C
:100B40000E008AE80E00C068F04201D198190890A2
:100B5000324606A903A800F016FB03AB83E80700A2
:100B60006D10641C002DE4D132466946B8F1000FC7
:100B700003A802D000F0F3FA01E000F004FBC9E999
:100B80000001C9F808200AB0BDE8F087A06600009F
:100B9000007B00F080007047004870471C04002074
:100BA0007546FFF7F9FFAE4605006946534620F04B
:100BB0000700854618B020B5FFF766FBBDE820406A
:100BC0004FF000064FF000074FF000084FF0000B09
:100BD00021F00701AC46ACE8C009ACE8C009ACE8BC
:100BE000C009ACE8C0098D46704710B50446AFF3A4
:100BF00000802046BDE81040FFF731BB4FF0013CBC
:100C000050F8042B51F8043B9A4221D1A2EB0C037B
:100C1000934313EACC1317D150F8042B51F8043B3B
:100C20009A4215D1A2EB0C03934313EACC130BD1D8
:100C300050F8042B51F8043B9A4209D1A2EB0C0363
:100C4000934313EACC13DBD04FF00000704700BF92
:100C5000D01A01BAB1FA81F101F0180122FA01F0BB
:100C6000CB40C1F12001DBB2C0B2C01A2CFA01F3B3
:100C7000D11A914311EAC311E6D170475FEA400CE3
:100C800008BF91F0000F4FEA8C234FEAC12243EADC
:100C900051514FEA1C5018BF00F5F0404FEA3000A8
:100CA00018BF41F000415FEA6C5C00F02980BCF1A4
:100CB000FF3F08BF40F080407047130C06BF12048E
:100CC0004FF0100C4FF0000C130E04BF12020CF189
:100CD000080C130F04BF12010CF1040C930F04BF96
:100CE00092000CF1020CD30F04BF52000CF1010C66
:100CF00011464FF00002A0F11F00A0EB0C0070475E
:100D000011F0004F08BF704731F000413FF4D5AFFC
:100D10000B0C06BF09044FF0100C4FF0000C0B0E2B
:100D200004BF09020CF1080C0B0F04BF09010CF100
:100D3000040C8B0F04BF89000CF1020CCB0F04BF15
:100D400049000CF1010CCCF12003A0EB0C0022FABD
:100D500003F302FA0CF241EA030100F101007047CB
:100D600020F07F4C80EA030023F07F47ACEB0703C1
:100D700003F57C5300F0004003F1FF032DE98049A7
:100D80004FEA154B09B44FEA144325EA0B4E24EA07
:100D900003480FF2042606EB132749083E785FEA62
:100DA000320203FB0667C7F5000707FB06F64FEAAA
:100DB00054374FEAD64606F1020607FB066CCCF123
:100DC000005C4FEA1C472CEA074C07FB06F40CFBBF
:100DD00006F504EB15464FEA961634BF00204FF097
:100DE00000404FEAD13706FB07FC4FEA1C4C0CFBD6
:100DF0000BF7D21B03FB0CF761EB07010CFB0EF7A3
:100E0000B0EB074072EB17420CFB08F734BFA2EBC4
:100E10000742B2EB074261EB17414FEA0C444FEA3D
:100E2000910706FB07FC4FEA1C4C0CFB0BF7B0EBE1
:100E3000C74072EB573203FB0CF734BFA2EBC7423B
:100E4000B2EBC74261EB57310CFB0EF7B0EBC700BA
:100E500072EB57720CFB08F734BFA2EBC702B2EB80
:100E6000C70261EB5771039F4FEA816141EA92111A
:100E700004EBCC044FEAD1374FEA826206FB07FC51
:100E800042EA90124FEA80604FEA1C4C0CFB0BF7D1
:100E9000D21B03FB0CF761EB07010CFB0EF7B0EB69
:100EA000074072EB17420CFB08F734BFA2EB074276
:100EB000B2EB074261EB17414FEA8C554FEA9107BD
:100EC00004EB9C2406FB07FC4FEA1C4C0CFB0BF7C5
:100ED000B0EBC74072EB573203FB0CF734BFA2EB09
:100EE000C742B2EBC74261EB57310CFB0EF7B0EBD8
:100EF000C70072EB57720CFB08F734BFA2EBC702B6
:100F0000B2EBC70261EB577115EB4C254FEA8161DB
:100F100041EA92114FEA82624FEAD13742EA9012D7
:100F200006FB07FC44F100044FEA80604FEA1C4CCA
:100F30000CFB0BF7D21B03FB0CF761EB07010CFB5F
:100F40000EF7B0EB074072EB17420CFB08F734BF0B
:100F5000A2EB0742B2EB074261EB174115EB1C1500
:100F60004FEA813141EA92414FEA823242EA9042AD
:100F70004FEA80304FEA0C7644F1000448EA03431C
:100F80004EEA0B484FF0000EB2EB080C71EB030772
:100F900024BF624639464EEB0E0E4FF0000B001890
:100FA000524149414BEB0B0BB2EB080C71EB0307C1
:100FB0007BF1000B24BF624639464EEB0E0E4FF01C
:100FC000000B0018524149414BEB0B0BB2EB080CE4
:100FD00071EB03077BF1000B24BF624639464EEBF1
:100FE0000E0E51EA020718BF46F0010616EB0E7608
:100FF00055F1000254F1000103D5BDE88901BDE8B7
:101000000088BDE88901BDE80048B619524141EBAE
:101010000101A3F10103704780807F7E7D7C7B7A94
:101020007978777676757473727171706F6E6E6D94
:101030006C6C6B6A6A69686867666665646463633A
:1010400062616160605F5F5E5E5D5D5C5C5B5B5AC0
:101050005A5959585857575656555555545453532D
:1010600052525251515050504F4F4F4E4E4D4D4D88
:101070004C4C4C4B4B4B4A4A4A49494948484847D3
:101080004747474646464545454444444443434311
:101090004342424242414141002B26D4770021D0B5
:1010A0001CB54FEA370703B44FF010004FF01001A2
:1010B0004FF000000FBCBDE810400BF1010BBBF17D
:1010C000010F08BF5FEA170722BF12F1010211F1F9
:1010D00001014FF0004143F1000300F0004043EAFA
:1010E00000007047F9D35708DAE746EA064613F1DD
:1010F000400F4FEA16461FDD13F1200FDFBF1643E6
:101100000A46002120335B42C8D0C3F1200746EADB
:10111000064602FA07F74FEA164646EA0706C3F103
:10112000200722FA03F201FA07F721FA03F14FF040
:10113000000342EA0702B1E746EA020646EA06462B
:101140004FEA164646EA0106BCBF46EA0646360C9A
:101150004FF000034FF000024FF000019EE72DE931
:10116000C048934630B491E8380007C831EA400CD3
:1011700048BF34EA430C03D5FFF7F2FDFFF78CFFBD
:10118000F0BCBDE800882DE9C048934630B491E832
:10119000380007C810F0804F08BF13F0804F03D10C
:1011A00000F005F8FFF778FFF0BCBDE8008820F0FC
:1011B0007F4780EA030023F07F4C07EB0C03A3F585
:1011C0007C5300F00040A3F1FE0392F0000F00F00A
:1011D000B38095F0000F00F077802DE901494FEAC8
:1011E00011404FEA144621EA004800FB06FC24EABD
:1011F000064708FB06F607FB08F800FB07F718EBA5
:1012000006484CEB164C4FEA124B18EB07484FEAD6
:1012100015464CEB174022EA0B4E0BFB06FC25EA69
:1012200006470EFB06F607FB0EFE0BFB07F71EEB51
:10123000064E4CEB164C4FF000061EEB074E4CEBE7
:10124000174B18EB0B0840F1000018EB0E0B58EB96
:10125000000840F100008F1A4FF000013CBFC94365
:10126000661B14BFB5EB040C00213CBFC943F61B41
:101270004FEA17444EEA8E0E27EA04454FEA1C4710
:1012800004FB07622CEA074C05FB07F70CFB05F68D
:1012900004FB0CFC16EB074642EB174216EB0C4620
:1012A00042EB1C421BEB060658EB0202414146EAA8
:1012B0009E0601D5BDE80189B619524141EB0101F5
:1012C000A3F10103BDE801894FEA14454FEA114734
:1012D00024EA054621EA074C05FB07F406FB07F75D
:1012E0000CFB06F105FB0CFC11EB074144EB17442A
:1012F0004FEA124711EB0C4144EB1C4422EA074C25
:1013000005FB07F206FB07F70CFB06F605FB0CFCDA
:1013100016EB074642EB174216EB0C4642EB1C4518
:101320006A1854F1000148BF7047B619524141EBA9
:101330000101A3F10103704795F0000F37D04FEA88
:1013400011424FEA144721EA024624EA074C02FB05
:1013500007F106FB07F70CFB06F402FB0CFC14EB91
:10136000074441EB17414FEA154714EB0C4441EB9E
:101370001C4125EA074C02FB07F506FB07F70CFBAF
:1013800006F602FB0CFC16EB074645EB174516EB81
:101390000C4645EB1C42121951F1000148BF704741
:1013A000B619524141EB0101A3F1010370474FEA25
:1013B00014454FEA114724EA054621EA074C05FB8C
:1013C00007F106FB07F70CFB06F24FF0000605FBE2
:1013D0000CFC12EB074241EB174112EB0C4251EBB4
:1013E0001C4148BF7047921841EB0101A3F1010372
:1013F0007047000010B52DED048B0F4890ED000AEA
:10140000B0EE408A808884B2204605F0EFFAB0EE54
:10141000480A0A48006805F07EF818EE100A05F040
:10142000D5FD41EC190B53EC192B05A0FEF740FF3D
:10143000BDEC048B10BD00005400002048000020CB
:10144000252E32662020200000BFFEE72DE9F04166
:101450008AB004460D4616461F46DDF840801A48FD
:101460001A4908601A4808631A48486308464760E2
:10147000C0F80880C4600561466100218161C161D6
:1014800001620121416200218162C16200F09EFB84
:1014900018B101200AB0BDE8F08100200090019051
:1014A0000290039004900590069001200790089008
:1014B0000E2009906946054800F00AFA08B102209A
:1014C000E8E70020E6E70000006400403401002067
:1014D000740100209001002010B5024800F090FA3D
:1014E00010BD0000340100202DE9F04105460F46F3
:1014F000164600241248006B05601148006B4560D9
:1015000000200F49096B88600D49096BC8600C48C1
:10151000006B066100BF06E0395D0948006B1430BE
:101520000155601C84B2B442F6DB6421044800F02B
:101530008BFC10B10120BDE8F0810020FBE700002A
:101540003401002070B504460D46206800F5D870BF
:1015500000EB0510006800F00400616B8860606BB0
:10156000806860B9206800F5D87000EB051000684D
:1015700040F2FF7101EA5050616B08600BE0206897
:1015800000F5D87000EB051000686FF0604101EACB
:10159000D000616B4860206800F5D87000EB051042
:1015A000006800F00200616BC860206800F5D87028
:1015B00000EB0510406800F00F00616B08612068C7
:1015C00000F5D87000EB05104068C0F30720616B90
:1015D000C861206800F5D87000EB05108068616B69
:1015E0000875206800F5D87000EB05108068010AC6
:1015F000606B4175206800F5D87000EB05108068BD
:10160000010C606B8175206800F5D87000EB051047
:101610008068000E616BC875206800F5D87000EB1B
:101620000510C068C1B2606B0176206800F5D87003
:1016300000EB0510C068010A606B4176206800F578
:10164000D87000EB0510C068010C606B81762068D3
:1016500000F5D87000EB0510C068000E616BC8760D
:101660004DB920202168C8602068406920F0020040
:101670002168486108E020202168086120684069ED
:1016800020F010002168486194F8380022281DD10C
:101690002068406920F480702168486120684069B2
:1016A00020F40070216848612068406920F480605F
:1016B000216848612068406920F400602168486121
:1016C0002068406920F400402168486194F838009F
:1016D000322803D1122084F8380002E0012084F877
:1016E0003800204600F09EFB002070BD10B5044677
:1016F0002068406920F001002168486194F83800B2
:1017000012281DD12068406920F48070216848614A
:101710002068406920F400702168486120684069B1
:1017200020F48060216848612068406920F40060EE
:10173000216848612068406920F4004021684861C0
:1017400094F83800322803D1222084F8380002E0CF
:10175000012084F83800204600F0A6FC002010BDCF
:101760001CB50A480A490860084600F0CBFC002076
:1017700000900220019000226946054800F095FC87
:101780000021034800F01EFD1CBD00000074004055
:101790008403002070B52DED048B0446204605F02F
:1017A00004FB41EC180B9FED150B53EC102B51EC87
:1017B000180B05F075F941EC180B9FED120B53EC6B
:1017C000102B51EC180B05F003FB41EC190B9FEDAE
:1017D0000F0B53EC102B05F063F941EC180B51EC97
:1017E000180B05F0B5FA05462B46002211460948AC
:1017F00000F0D2FCBDEC048B70BD000000000000C6
:1018000000408F40000000000000B0406666666641
:1018100066660A40840300207047000000B587B068
:1018200000BF002001900F48006840F002000D4901
:1018300008600846006800F00200019000BF00BF89
:10184000802002900120039004900320059002A9BB
:10185000054800F0FDFC00228021034800F00EFE48
:1018600007B000BD303802400004024010B500212E
:101870004FF6FE7000F002F810BD000070B505468E
:101880000C461048104908600846446000218160F9
:10189000C560016103200D490860002048600120F7
:1018A00088600020C86008614861012088610020CC
:1018B000C8610862044801F061FB1821024801F088
:1018C000F5FB70BD0008004098030020D403002001
:1018D00030B5034600220C7D012000FA04F2464890
:1018E000006840F00100444C20602046006820F46D
:1018F0007C502060204600684C6A40EA04203E4C40
:1019000020603D481C30006890433B4C1C342060F4
:10191000C869D8B938480C3000689043364C0C344C
:101920002060888880B28C8940EA04443248403084
:101930004D6940F83540088880B20C8940EA04447B
:101940002D4840304D6900EBC5004460C86901284E
:101950001BD129480C3000681043274C0C34206000
:10196000888880B20C8840EA0444234840304D699E
:1019700040F83540888980B20C8940EA04441E480A
:1019800040304D6900EBC5004460886938B91A4899
:10199000001D00689043184C241D206006E0164886
:1019A000001D00681043144C241D2060086930B9E4
:1019B00011481430006890430F4C143420600869BB
:1019C000012806D10C481430006810430A4C143426
:1019D0002060086A012806D107481C3000681043BF
:1019E000054C1C3420600448006820F00100024CC3
:1019F0002060002030BD00000066004070470000FD
:101A00002DE9F041044600250026002720684069A2
:101A100000F0010018B320688068694908408842D6
:101A200001D1012000E0002005462068806865495A
:101A30000840884201D1012000E0002006462068CD
:101A4000806861490840884201D1012000E00020FF
:101A500007460DB906B917B12046FFF747FE2068C3
:101A6000C06800F0030520684069C0F3400625B156
:101A70001EB100212046FFF765FD2068006900F0D7
:101A8000030520684069C0F3001625B11EB101218D
:101A90002046FFF757FD2068806900F001052068A7
:101AA0004069C0F3002620684069C0F3C0372DB1FB
:101AB00026B11FB1E06B40F00100E063206880694F
:101AC000C0F3400520684069C0F3402620684069A3
:101AD000C0F3C0372DB126B11FB1E06B40F002005A
:101AE000E06320688069C0F3800520684069C0F326
:101AF000802620684069C0F3C0372DB126B11FB1E0
:101B0000E06B40F00400E0632068806900F0700042
:101B100008B9012000E00020054620684069C0F3B4
:101B2000C02620684069C0F3C03795BB8EB387B329
:101B30002068806900F07005402D1BD006DC102D58
:101B400009D0202D0CD0302D24D10EE0502D16D0F0
:101B5000602D1FD118E0E06B40F00800E0631AE050
:101B6000E06B40F01000E06315E0E06B40F0200017
:101B7000E06310E0E06B40F04000E0630BE0E06BFE
:101B800040F08000E06306E0E06B40F48070E063CA
:101B900001E007E000BF00BF2068806920F070000E
:101BA00021688861E06B40B1042021684860012011
:101BB00084F838002046FFF721FFBDE8F0810000DF
:101BC00003000004000300080000031070B5044681
:101BD000032600250CB9012070BD94F8380028B9FF
:101BE000002084F83900204600F0D0F8022084F864
:101BF00038002068006820F0020021680860206832
:101C0000006840F001002168086000F03DFC0546D6
:101C10000EE000F039FC401B0A2809D9032084F8A3
:101C2000380000BF002084F8390000BF0320D3E74C
:101C30002068406800F001000028EAD02068406871
:101C400000F0010008B9002692E0A069012806D141
:101C50002068006840F080002168086005E0206886
:101C6000006820F0800021680860E069012806D142
:101C70002068006840F040002168086005E02068A6
:101C8000006820F0400021680860206A012806D121
:101C90002068006840F020002168086005E02068A6
:101CA000006820F0200021680860606A012806D1E1
:101CB0002068006840F010002168086005E0206896
:101CC000006820F0100021680860A06A012806D191
:101CD0002068006840F008002168086005E020687E
:101CE000006820F0080021680860E06A012806D139
:101CF0002068006840F004002168086005E0206862
:101D0000006820F0040021680860D4E9020108435B
:101D100021690843616908436168491E08432168D5
:101D2000C8612068006820F001002168086000F0A8
:101D3000ABFB05460EE000F0A7FB401B0A2809D9C3
:101D4000032084F8380000BF002084F8390000BF69
:101D5000032041E72068406800F001000028EAD134
:101D60002068406800F0010008B1002600E001266C
:101D7000012E06D10020E063012084F83800002005
:101D80002AE7042084F83800012025E710B586B042
:101D9000044600BF002000901F48006840F000701B
:101DA0001D4908600846006800F00070009000BF00
:101DB00000BF00BF0020009017481038006840F0B6
:101DC00001001549103908600846006800F001005C
:101DD000009000BF00BF4FF4C0500190022002905D
:101DE00001200390022004900920059001A90B48CE
:101DF00000F02EFA0A480068406940F002000849E5
:101E00000968486102220121142000F08DFB142092
:101E100000F07DFB06B010BD4038024000000240DB
:101E20003401002010B5044606480068406940F0BF
:101E300002000449096848610249486B02F014FF36
:101E400010BD0000340100202DE9F04104460E468B
:101E50000525002700BF94F83900012802D102208F
:101E6000BDE8F081012084F8390000BF94F8380003
:101E7000222803D1322084F8380002E0122084F8AE
:101E800038002068806800F08060B0F1806F01D178
:101E9000002512E02068806800F00060B0F1006F5B
:101EA00001D1012509E02068806800F08050B0F180
:101EB000805F01D1022500E00425042D7ED020683A
:101EC00000F5C07000EB0510006800F0010120680B
:101ED00000F5C07000EB05100160206B806898B9B8
:101EE000206800F5C07000EB05100068216BC96820
:101EF000226B128841EA42510843216801F5C07102
:101F000001EB0511086015E0206800F5C07000EBDA
:101F100005100068216B8968226B526841EAC20192
:101F2000226BD26811430843216801F5C07101EBAF
:101F300005110860206B007C00F00F00216B086128
:101F4000206800F5C07000EB0510406820F00F011C
:101F5000206800F5C07000EB05104160206800F5B6
:101F6000C07000EB05104068216B096908432168C7
:101F700001F5C07101EB05114860206BC07D0106C1
:101F8000206B807D41EA0041206B407D41EA0021C9
:101F9000206B007D0143206800F5C07000EB051048
:101FA0008160206BC07E0106206B807E41EA00418B
:101FB000206B407E41EA0020216B00E063E0097E57
:101FC0000843216801F5C07101EB0511C860206864
:101FD00000F5C07000EB0510006840F001012068BA
:101FE00000F5C07000EB0510016000F04DFA0746E7
:101FF00011E0701C78B126B100F046FAC01BB04267
:1020000009D9032084F8380000BF002084F8390083
:1020100000BF032024E74DB9206880681F490840AD
:10202000884201D1012016E0002014E0012D09D1E1
:10203000206880681A490840884201D101200AE0DE
:10204000002008E02068806816490840884201D1D5
:10205000012000E000200028CBD094F8380032287E
:1020600007D1222084F8380000BF002084F839000E
:1020700007E0012084F8380000BF002084F8390010
:1020800000BF0020ECE6042084F8380000BF0020E8
:1020900084F8390000BF0120E2E6000003000004DC
:1020A0000003000800000310704770B503460024C9
:1020B000002500BF5879012801D1022070BD012000
:1020C000587100BF022018711868046840F6FE704D
:1020D00090408443D1E9000640EA060505FA02F083
:1020E00004431868046018680668C020904086435E
:1020F000186806600120187100BF0020587100BFE9
:1021000000BFDBE710B504460CB9012010BD2079F3
:1021100020B900206071204600F008F802202071EC
:1021200000202061012020710020EFE710B586B06B
:10213000044600BF002000901548006840F00050A1
:10214000134908600846006800F00050009000BF86
:1021500000BF00BF002000900D481038006840F01C
:1021600001000B49103908600846006800F00100C2
:10217000009000BF00BF10200190032002900020BB
:10218000039001A9034800F063F806B010BD0000F9
:10219000403802400000024038B50446002000905C
:1021A0002068009029B902F10800009D28440090A1
:1021B00004E002F11400009D2844009000980360A0
:1021C000002038BD30B502460023002400BF5079FE
:1021D000012801D1022030BD0120507100BF022032
:1021E00010711068006801258D402843156828602B
:1021F00091B91068006800F004031068006800F0EE
:102200003804042B1CD1382C1AD11068406840F0D7
:1022100001001568686013E01068006800F480230E
:102220001068006800F46014B3F5802F08D1B4F58D
:10223000601F05D11068406840F0020015686860B2
:102240000120107100BF0020507100BF00BFC2E725
:10225000F8B502460B460025002400200021E6E0E8
:10226000012606FA01F51E6806EA0504AC4273D1A0
:102270005E68022E02D05E68122E13D1CF0802F1E2
:10228000200656F827004E07F70E0F26BE40B04333
:102290004F07FF0E1E69BE403043CF0802F12006F3
:1022A00046F8270010684F000326BE40B0431E7951
:1022B00006F003064F00BE40304310605E68012EFA
:1022C00008D05E68022E05D05E68112E02D05E68CE
:1022D000122E13D190684F000326BE40B0434F002A
:1022E000DE68BE4030439060506801268E40B043A7
:1022F0001E79C6F300168E4030435060D0684F0000
:102300000326BE40B0434F009E68BE403043D060BD
:102310005E6806F08056B6F1805FA8D100BF002647
:102320000096454E366846F48046434F3E603E4632
:10233000366806F48046009600BF00BF3F4E8F0807
:1023400056F827008E07370F0F26BE40B0433C4E8D
:10235000B24202D100262EE068E03A4EB24201D1EC
:10236000012628E0384EB24201D1022623E0374E42
:10237000B24201D103261EE0354EB24201D10426FD
:1023800019E0344EB24201D1052614E0324EB24279
:1023900001D106260FE0314EB24201D107260AE0F4
:1023A0002F4EB24201D1082605E02E4EB24201D195
:1023B000092600E00A268F073F0FBE4030431F4E1C
:1023C0008F0846F82700284E3068A0435E6806F460
:1023D0008036B6F5803F00D12043234E3060361D55
:1023E0003068A0435E6806F40036B6F5003F00D1C1
:1023F00020431D4E361D3060361D3068A0435E6898
:1024000006F48016B6F5801F00D12043164E08361C
:102410003060361D3068A0435E6806F40016B6F5DD
:10242000001F00D12043104E0C363060491C10298B
:10243000FFF416AFF8BD00004438024008380140F0
:10244000000002400004024000080240000C02406C
:10245000001002400014024000180240001C02401C
:102460000020024000240240003C01400246136963
:102470000B400BB1012000E0002070470AB18161E0
:1024800001E00B0483617047014800687047000059
:102490001400002002480068401C01490860704791
:1024A0001400002010B50D48006840F400700B497E
:1024B00008600846006840F48060086008460068CC
:1024C00040F480700860052000F06CF80F2000F0E8
:1024D00007F800F017F8002010BD0000003C024093
:1024E00070B5044600F01CFA4FF47A71B0FBF1F5B8
:1024F000284600F0CFFC00222146501E00F014F8C0
:10250000002070BD08B50020009000BF08BD00BFCE
:1025100000F01F02012191404209920002F1E022E5
:10252000C2F8001100BF70472DE9F05F80460D46EC
:102530001646002701F05EF9074639462A4633461B
:1025400001F00700C0F1070ABAF1040F02D94FF0F9
:10255000040A01E0C0F1070AD14600F1040ABAF109
:10256000070F02D24FF0000A01E0A0F1030AD4469F
:102570004FF0010A0AFA09FAAAF1010A0AEA020A64
:102580000AFA0CFA4FF0010B0BFA0CFBABF1010B42
:102590000BEA030B4AEA0B042146404601F032F9EC
:1025A000BDE8F09F00BF00F00702064B19684FF628
:1025B000FF031940044B0B4343EA0221014B19600E
:1025C00000BF70470CED00E00000FA0538B50024AC
:1025D00000BF002000902348006840F0805021494F
:1025E00008600846006800F08050009000BF00BFFF
:1025F0000120010491FAA1F1B1FA81F11A4A42F8DD
:102600002100FFF741FF044607E0FFF73DFF001BF5
:10261000B0F57A7F01D9032038BD1448406800F432
:102620008030B0F5803FF0D10120410491FAA1F152
:10263000B1FA81F10C4A42F82100FFF725FF044668
:1026400007E0FFF721FF001BB0F57A7F01D90320D7
:10265000E2E70648406800F40030B0F5003FF0D1F2
:102660000020D9E74038024000000E4200700040D0
:1026700070B504460E460025A748006800F00F001C
:10268000B0426FD2A4490E700846006800F00F00F7
:10269000B04201D0012070BD207800F00200022875
:1026A00007D19E48006820F0F000A16808439B49CC
:1026B0000860207800F0010000283ED06068012802
:1026C00007D1964808380068C0F34040B8B90120E7
:1026D000E1E76068022802D06068032807D18F48CC
:1026E00008380068C0F3406048B90120D3E78B4840
:1026F00008380068C0F3400008B90120CBE78748DC
:10270000006820F003006168084384490860FFF70F
:10271000BBFE05466068012810D108E0FFF7B4FE53
:10272000401B41F28831884201D90320B3E77B483E
:10273000006800F00C000428F0D1CDE060680228A9
:1027400011D108E0FFF7A0FE401B41F2883188421A
:1027500001D903209FE77148006800F00C000828A9
:10276000F0D1B9E024E06068032810D108E0FFF759
:102770008BFE401B41F28831884201D903208AE751
:102780006648006800F00C000328F0D1A4E008E0DF
:10279000FFF77AFE401B41F28831884201D90320BD
:1027A00079E75E48006800F00C000028F0D193E063
:1027B000207800F00200022807D15848006820F075
:1027C000F000A168084355490860207800F0010036
:1027D000002877D06068012807D150480838006881
:1027E000C0F34040B8B9012055E76068022802D024
:1027F0006068032807D1494808380068C0F3406082
:1028000048B9012047E7454808380068C0F3400050
:1028100008B901203FE74148006820F003006168E3
:1028200008433E490860FFF72FFE0546606801280F
:1028300010D108E0FFF728FE401B41F288318842A2
:1028400001D9032027E73548006800F00C00042870
:10285000F0D137E06068022810D108E0FFF714FEDD
:10286000401B41F28831884201D9032013E72B48ED
:10287000006800F00C000828F0D123E0606803280D
:1028800010D108E0FFF700FE401B41F2883188427A
:1028900001D90320FFE62148006800F00C0003285E
:1028A000F0D10FE008E0FFF7EFFD401B41F2883167
:1028B000884201D90320EEE61848006800F00C00B9
:1028C0000028F0D114490E700846006800F00F008F
:1028D000B04201D00120DEE6207800F00400042898
:1028E00007D10E48006820F4E050E16808430B4926
:1028F0000860207800F00800082808D10748006820
:1029000020F46040216940EAC100044908600F20BA
:10291000FFF7E6FD0020BEE6003C0240083802401A
:1029200010B500F045F80949096801F0F001F022FE
:1029300092FAA2F2B2FA82F2D140054A515CC84042
:10294000044908600846006810BD000008380240CD
:10295000C67000080000002010B5FFF7E1FF07492E
:10296000096801F4E0514FF4E05292FAA2F2B2FA8F
:1029700082F2D140024A515CC84010BD0838024082
:10298000C670000810B5FFF7CBFF0749096801F4CE
:1029900060414FF4604292FAA2F2B2FA82F2D14060
:1029A000024A515CC84010BD08380240C670000899
:1029B00070B50021002200230020274C246804F079
:1029C0000C0424B1042C04D0082C41D103E023488A
:1029D00040E023483EE0204C241F246804F03F01DF
:1029E0001D4C241F246804F4800484B11C4CB4FBE7
:1029F000F1F5194C241F246847F6C076344096FA46
:102A0000A6F6B6FA86F6F44005FB04F20FE0134C86
:102A1000B4FBF1F5104C241F246847F6C07634400F
:102A200096FAA6F6B6FA86F6F44005FB04F20A4CCE
:102A3000241F246804F440344FF4403595FAA5F57A
:102A4000B5FA85F5EC40641C6300B2FBF3F001E0DD
:102A5000024800BF00BF70BD083802400024F400E7
:102A600040787D0138B504460025207800F001004B
:102A7000002866D0F748006800F00C0004280DD04C
:102A8000F448006800F00C00082813D1F148001F3A
:102A9000006800F48000B0F5800F0BD1ED480838D5
:102AA0000068C0F3404000284BD06068002848D13F
:102AB000012038BD0020E749891F0870FFF7E4FCBA
:102AC000054608E0FFF7E0FC401B41F288318842F0
:102AD00001D90320EDE7DF4808380068C0F3404023
:102AE0000028EFD12079DB49891F08706068A0B108
:102AF000FFF7CAFC054608E0FFF7C6FC401B41F2A1
:102B00008831884201D90320D3E7D24808380068C9
:102B1000C0F340400028EFD013E0FFF7B5FC0546B6
:102B200008E0FFF7B1FC401B41F28831884201D92F
:102B30000320BEE7C74808380068C0F340400028BB
:102B4000EFD1207800F00200022869D1C148006866
:102B500000F00C0058B1BF48006800F00C000828D5
:102B600021D1BC48001F006800F48000D8B9B948E2
:102B700008380068C0F3400020B1E068012801D0A7
:102B8000012096E7B3480838006820F0F800F822E2
:102B900092FAA2F2B2FA82F2216991400843AD4959
:102BA000083908603CE0E06828B30120AA490860C1
:102BB000FFF76AFC054606E0FFF766FC401B642849
:102BC00001D9032075E7A34808380068C0F3400026
:102BD0000028F1D09F480838006820F0F800F8225B
:102BE00092FAA2F2B2FA82F221699140084399491D
:102BF0000839086014E0002097490860FFF744FC9A
:102C0000054606E0FFF740FC401B642801D903207D
:102C10004FE7904808380068C0F340000028F1D121
:102C2000207800F0080008282CD16069A8B10120A4
:102C30008A490860FFF728FC054606E0FFF724FCF8
:102C4000401B642801D9032033E782486C300068B8
:102C5000C0F340000028F1D014E000207F49086054
:102C6000FFF712FC054606E0FFF70EFC401B642848
:102C700001D903201DE777486C300068C0F340009D
:102C80000028F1D1207800F0040004286FD100BFA3
:102C9000002000906F483830006840F080506D4947
:102CA000383108600846006800F08050009000BF8E
:102CB00000BF6B48006840F4807069490860FFF706
:102CC000E3FB054606E0FFF7DFFB401B642801D964
:102CD0000320EEE66248006800F480700028F2D01D
:102CE00000205C4968310870FFF7CEFB054608E01C
:102CF000FFF7CAFB401B41F28831884201D903200B
:102D0000D7E6544868300068C0F340000028EFD18F
:102D1000207A504968310870A068A0B1FFF7B4FB71
:102D2000054608E0FFF7B0FB401B41F288318842BE
:102D300001D90320BDE6474868300068C0F3400071
:102D40000028EFD013E0FFF79FFB054608E0FFF7F0
:102D50009BFB401B41F28831884201D90320A8E641
:102D60003C4868300068C0F340000028EFD1A069FB
:102D7000F0B33848006800F00C00082872D0A06951
:102D8000022850D1002034490866FFF77DFB054634
:102D900006E0FFF779FB401B642801D9032088E691
:102DA0002C4808380068C0F340600028F1D1D4E90D
:102DB0000701084347F6C07292FAA2F2B2FA82F211
:102DC000616A914008430122A16AC2EB51014FF4AC
:102DD000403292FAA2F2B2FA82F2914008434FF0E6
:102DE000706292FAA2F2B2FA82F2E16A914000E0D5
:102DF0003AE008431749091F086001201649086690
:102E0000FFF742FB054606E0FFF73EFB401B642848
:102E100001D903204DE60F4808380068C0F3406030
:102E20000028F1D020E000200B490866FFF72CFBBA
:102E3000054606E0FFF728FB401B642801D9032064
:102E400037E6044808380068C0F340600028F1D134
:102E50000AE007E00838024000004742800E47427F
:102E600000700040012024E6002022E6042808D15A
:102E70004FF0E021096941F004014FF0E0221161B7
:102E800007E04FF0E021096921F004014FF0E02252
:102E90001161704770B504462546681EB0F1807F09
:102EA00001D301200FE0681E4FF0E02148610F219F
:102EB0004FF0FF3000F0A6FC00204FF0E0218861C9
:102EC00007200861002070BD10B504460CB9012030
:102ED00010BD94F8390028B9002084F83800204645
:102EE00000F00CF8022084F83900211D206801F060
:102EF000ADF9012084F839000020E9E738B504462F
:102F00000E492068884217D100BF002000900C486D
:102F1000006840F002000A4908600846006800F0B6
:102F20000200009000BF00BF032201211D20FFF717
:102F3000FBFA1D20FFF7EBFA38BD0000000400404B
:102F40004038024001460868C06820F001000A6865
:102F5000D06000BF0868006A41F21112104050B9F9
:102F60000868006A9210104028B90868006820F0CC
:102F700001000A68106000BF002070472DE9F04191
:102F800004460D464FF000080026002714B9012022
:102F9000BDE8F08194F8390028B9002084F83800A1
:102FA000204600F045F8022084F839002068806847
:102FB00020F0070021688860211D206801F046F993
:102FC0002068D0F80880206886692068076A286829
:102FD00040EA080840F203308643A969A86840EA3D
:102FE0000120064340F60C4086434FF2F000864332
:102FF000E969E86840EA0120064328690001296A76
:1030000040EA0130064327F0220727F08807696964
:10301000686840EA011007432068C0F8088020680B
:10302000866120680762012084F839000020AFE73C
:1030300010B586B004461A49206888422ED100BFD8
:10304000002000901748006840F00400154908600F
:103050000846006800F00400009000BF00BF00BFF9
:10306000002000900F481038006840F008000D491B
:10307000103908600846006800F00800009000BFA2
:1030800000BF4FF4405001900220029001200390B5
:103090000220059001A90448FFF7DAF806B010BD38
:1030A0000008004040380240000C024030B50446A1
:1030B0000D4615B1042D0CD105E001220021206838
:1030C00001F036F910E001220421206801F030F906
:1030D0000AE001220021206801F02AF901220421DE
:1030E000206801F025F900BF00BF2068006840F0AB
:1030F000010021680860002030BD7047014691F84A
:1031000039007047F8B5044600250026206800689D
:1031100000F001052068C06800F480767DB176B1CA
:1031200000BF002000902068006800902068406880
:10313000009000BF00BFE06B40F00100E06320683A
:103140000068C0F340052068406900F001067DB1C9
:1031500076B100BF002000902068006800902068D1
:103160004068009000BF00BFE06B40F00400E063E7
:1031700020680068C0F380052068406900F00106FF
:103180007DB176B100BF00200090206800680090FB
:1031900020684068009000BF00BFE06B40F0020074
:1031A000E06320680068C0F3C0052068406900F053
:1031B00001067DB176B100BF002000902068006854
:1031C000009020684068009000BF00BFE06B40F0B6
:1031D0000800E06320680068C0F340152068C068FC
:1031E00000F020061DB116B1204601F0C7F8206896
:1031F0000068C0F3C0152068C06800F080061DB1EB
:1032000016B1204601F02AFA20680068C0F3801544
:103210002068C06800F040061DB116B1204601F0DC
:1032200095F8E06B28B1012084F839002046FFF7BB
:1032300064FFF8BD10B504460CB9012010BDA069AB
:1032400000B100E000BF94F8390028B9002084F8EC
:103250003800204600F026F8022084F83900206863
:10326000C06820F400502168C860204601F0E4F8EE
:103270002068006920F49040216808612068406956
:1032800020F02A00216848612068C06840F400509E
:103290002168C8600020E063012084F83900002024
:1032A000CCE7000010B586B0044666492068884225
:1032B0003FD100BF002000906348006840F001004B
:1032C000614908600846006800F00100009000BFF6
:1032D00000BF00BF002000905B481430006840F041
:1032E00010005949143108600846006800F01000C9
:1032F000009000BF00BF48150190022002900120FD
:103300000390022004900720059001A94F48FEF782
:103310009FFF4FF48060019001A94C48FEF798FF91
:103320002520FFF7F4F8032211462520FFF7FCF8CB
:1033300085E04749206888423ED100BF00200090C8
:103340004148006840F001003F49086008460068B5
:1033500000F00100009000BF00BF00BF00200090FF
:1033600039481030006840F40030374910310860A7
:103370000846006800F40030009000BF00BF042041
:103380000190022002900120039002200490072067
:10339000059001A92D48FEF75BFF0820019001A9C7
:1033A0002A48FEF755FF2620FFF7B1F80322002137
:1033B0002620FFF7B9F842E02649206888423ED12E
:1033C00000BF002000902048006840F002001E4925
:1033D00008600846006800F00200009000BF00BFCF
:1033E00000BF0020009018481030006840F4802092
:1033F0001549103108600846006800F480200090EC
:1034000000BF00BF08150190022002900120039028
:10341000022004900720059001A90F48FEF718FF2D
:103420004FF40060019001A90B48FEF711FF27201F
:10343000FFF76DF8032200212720FFF775F806B08B
:1034400010BD000000100140303802400000024072
:1034500000440040004800400004024030B50346EC
:10346000002493F83940012C01D0122C37D101B13E
:103470000AB9012030BD00BF93F83800012801D1FE
:103480000220F7E7012083F8380000BF99629A858F
:10349000DA850020D86393F83900122803D132204E
:1034A00083F8390002E0222083F839001868C068E8
:1034B00040F480701D68E8601868406940F00100C1
:1034C0001D68686100BF002083F8380000BF1868DD
:1034D000C06840F020001D68E8600020CAE70220B4
:1034E000C8E7000010B504460849206888420CD09F
:1034F00007492068884202D100F08AF805E00549B2
:103500002068884201D100F03FFA10BD0010014050
:1035100000440040004800402DE9F04704460D46B5
:10352000164699464FF0000894F83980B8F1010F1B
:1035300002D0B8F1220F65D105B116B90120BDE85E
:10354000F08700BF94F83800012801D10220F6E787
:10355000012084F8380000BF0020E06394F83900AF
:10356000222803D1322084F8390002E0122084F8A6
:103570003900A684E68428E0E08C401EE084A06840
:10358000B0F5805F14D14B4600228021204601F027
:103590009DF808B10320D2E72F463888C0F3080011
:1035A00021684860206908B9AD1C0EE06D1C0CE074
:1035B0004B4600228021204601F088F808B1032004
:1035C000BDE715F8010B21684860E08C0028D3DCCA
:1035D0004B4600224021204601F078F808B1032034
:1035E000ADE794F83900322803D1222084F839005D
:1035F00002E0012084F8390000BF002084F8380080
:1036000000BF9CE702209AE7704700BFFEE700007A
:1036100019480178194802780078401C174B187037
:10362000174881540078552803D0002019460870A7
:103630007047124800780B2800DAF9E71048407804
:10364000522802D0532810D107E00E480C49891C9B
:103650000A6802604968416007E00B480849891C14
:103660000A6802604968416000BF00BF002003494A
:10367000087000BFDCE700002000002042000020AE
:1036800028010020320000203A00002000B587B059
:1036900000BF002001902648006840F00100244946
:1036A00008600846006800F00100019000BF00BFFC
:1036B00000BF002001900846006840F00400086048
:1036C0000846006800F00400019000BF00BF00BF82
:1036D000002001900846006840F08000086008461D
:1036E000006800F08000019000BF00BF0120029040
:1036F00000200390022004900320059002A90D48A9
:10370000FEF7A6FD4FF40050029000200390012028
:1037100004900320059002A90748FEF799FD0C20AC
:10372000029002A90548FEF793FD07B000BD000016
:10373000303802400000024000080240001C0240F5
:1037400010B5012211460248FEF798FE10BD000098
:103750000004024010B5002201210248FEF78EFE4F
:1037600010BD00000004024010B5012202210248F1
:10377000FEF784FE10BD00000004024010B50022D8
:1037800002210248FEF77AFE10BD0000000402404C
:1037900000B587B000BF002001901248006840F0DB
:1037A0000200104908600846006800F0020001901D
:1037B00000BF00BF0320029001200390049003206B
:1037C000059002A90848FEF743FD0122114606486C
:1037D000FEF754FE012202210348FEF74FFE07B018
:1037E00000BD0000303802400004024000BFFEE788
:1037F0007047000002480068C0F3022070470000D4
:103800000CED00E010B5002807DA0A07140E054A8F
:1038100000F00F031B1FD45403E00A07130E024AE3
:10382000135410BD18ED00E000E400E010B5552081
:1038300005490870502048734FF6FF730E22034865
:10384000FFF76AFE10BD000004040020E80000201D
:1038500010B52DED088B01213C48006802F0FCFDFD
:103860003A48006890ED480A10EE101A084603F036
:10387000ADFB41EC190B9FED360B53EC102B03F015
:10388000A7FA41EC180B03F0D9F8334908602F4828
:10389000006890ED470A10EE101A084603F096FBF8
:1038A00041EC190B9FED2D0B53EC102B03F090FA0C
:1038B00041EC180B03F0C2F82749486002F0E0FC25
:1038C000044603F072FA41EC1B0B9FED260B53EC00
:1038D000102B03F07DFA41EC1A0B9FED240B53ECF7
:1038E000102B03F075FA41EC190B9FED220B53ECF2
:1038F000102B03F0D5F841EC180B03F09FF8164994
:103900008860084690ED020AF2EE040AB4EEE00A7E
:10391000F1EE10FA03DD9FED190A80ED020A552041
:1039200017490870481C0C490A6802604A684260DE
:10393000896881605120124948734FF6FF730E2247
:103940001048FFF7E9FDBDEC088B10BD48000020D2
:10395000765089EB1857C6BFF8030020C74B37894C
:103960004160C5BF4AD8124DFB210940B81E85EB06
:1039700051B8AE3F00000000000030403333933FA9
:1039800004040020E8000020124801781248027860
:103990000078401C104B187010488154007855284E
:1039A00003D000201946087070470B48007809289A
:1039B00000DAF9E70A480949491C0A6802604968BF
:1039C000416001200749086000200349087000BFDA
:1039D000EAE700002000002064000020120400201C
:1039E000540000206000002070470A7D752A24D012
:1039F00007DC6AB12B2A32D0552A0CD0712A34D177
:103A000015E0792A1FD08B2A23D0B02A2DD108E0C7
:103A10004A7D82712AE04A7D80F8D4200123C37454
:103A200024E04A7D80F8D520012303751EE04A7DFD
:103A300080F8D6200123437518E04A7D80F8D7200E
:103A40000123837512E04A7D80F8D8200123C375D5
:103A50000CE04A7D80F8D9200123037606E04A7DF8
:103A600080F8DA200123437600E000BF00BF7047F2
:103A700030B503460D46687D000204B2A87D0443BC
:103A8000287D452808D100EE904AF8EEE00A9FED27
:103A90003F1A80EE810A07E000EE904AF8EEE00A55
:103AA0009FED3B1A80EE810A287D6C2852D00EDCF7
:103AB00060283DD006DC452816D053281AD05F2850
:103AC00061D12FE0622839D064285CD13CE07728AE
:103AD0001CD004DC6E2843D0732854D110E07B281E
:103AE0001AD0FF284FD141E083ED370A012183F836
:103AF0003F1049E083ED380A012183F8401043E08C
:103B000083ED390A012183F838103DE083ED3A0A4C
:103B1000012183F8391037E083ED3B0A012183F856
:103B20003A1031E083ED3C0A012183F841102BE08B
:103B300083ED3D0A012183F8421025E083ED3E0A22
:103B4000012183F83B101FE083ED3F0A012183F838
:103B50003C1019E083ED400A012183F83D1013E089
:103B600083ED410A012183F83E100DE0FCEEC00A0E
:103B700010EE900AA3F80801184602F07BFE01211E
:103B800083F8431000E000BF00BF30BD0000804458
:103B90000000804310B54B7D1A068B7D42EA03423C
:103BA000CB7D42EA03220B7E1A430B7D052B02D00C
:103BB0000B7D5B2B0CD100EE902AB8EEE01ADFED06
:103BC000A21AC1EE210A9FEDA11A20EE810A26E079
:103BD0000B7D042B02D00B7D592B0CD100EE902ACB
:103BE000B8EEE01ADFED981AC1EE210A90ED381A0E
:103BF00020EE810A13E00B7D7F2B08D100EE902A86
:103C0000F8EEE00A9FED921A80EE810A07E000EEDE
:103C1000902AF8EEE00A9FED8C1A80EE810A0B7D67
:103C2000242B73D01DDC192B6AD010DC152B4FD040
:103C300006DC042B3AD0052B3ED0062B67D141E0A1
:103C4000162B4BD0172B4FD0182BF7D152E01A3B25
:103C50000A2B5CD2DFE803F05C62636D7BF5F5F55F
:103C60008A945B2B6FD010DC372B6DD006DC342BA5
:103C70006BD0352B6AD0362BE0D199E0382B70D041
:103C8000392B6FD0592BD9D1AAE0862B6BD006DC0B
:103C90007D2B69D07F2B68D0852BCFD1ADE08A2BCF
:103CA00078D0922B77D0932BC8D1BEE080ED460A16
:103CB000012480F8B440C5E080ED470A012480F873
:103CC000B540BFE080ED480A012480F8B640B9E075
:103CD00080ED490A012480F8B740B3E080ED4A0A3C
:103CE000012480F8B840ADE080ED4B0A012480F853
:103CF000B940A7E080ED4C0A012480F8BA40A1E069
:103D000080ED4D0A012480F8BB409BE044E098E040
:103D100080ED4E0A012480F8BC4093E092E0DFED94
:103D20004D0A60EE200AC0ED4F0A012480F8BD4024
:103D300088E0DFED480A60EE200AC0ED500A012459
:103D400080F8BE407EE051E038E02FE02FE0DFED6C
:103D5000410A60EE200AC0ED510A012480F8BF40FC
:103D600070E031E036E04EE046E064E0DFED390A35
:103D700060EE200AC0ED520A012480F8C04061E0E4
:103D8000DFED340A60EE200AC0ED530A012480F80A
:103D9000C14057E03DE042E0DFED2E0A60EE200A30
:103DA000C0ED540A012480F8C2404BE04AE049E0EB
:103DB00080ED550A012480F8C34043E080ED560AA7
:103DC000012480F8C4403DE080ED570A012480F8CA
:103DD000C54037E080ED580A012480F8C64031E044
:103DE00080ED5B0A012480F8C9402BE080ED5C0A7D
:103DF000012480F8CA4025E024E080ED590A01241E
:103E000080F8C7401EE080ED5A0A012480F8C840BF
:103E100018E080ED5E0A012480F8CC4012E080EDCD
:103E20005F0A012480F8CD400CE080ED600A012497
:103E300080F8CE4006E080ED610A012480F8CF4092
:103E400000E000BF00BF10BD0000804B0080BB45FC
:103E5000337396420000704410B502464B7D18063D
:103E60008B7D40EA0340CB7D40EA032000EE100A40
:103E7000B8EEC00ADFED170A80EE201A82ED481A6C
:103E80000B7E18064B7E40EA034000EE100AF8EE67
:103E9000C00A9FED111A80EE810ADFED100A20EEB4
:103EA000200A82ED470A8B7E1806CB7E40EA03404B
:103EB00000EE100AF8EEC00A9FED071A80EE810AA4
:103EC000D2ED380A20EE200A82ED460A012482F85B
:103ED000D04010BD0000804B0000804E0080BB45EC
:103EE0004A7D42708B7D8370CB7DC3700B7E0371E6
:103EF000012380F8D130704710B51848006890F859
:103F0000DA0000B910BD01220621084600F059FE72
:103F10009FED130A062002F0E7FA00BF00210620F9
:103F200001F050FC642000F0ADFF0C48006890EDFB
:103F3000480ADFED0C0AB4EEE00AF1EE10FAEDDC0F
:103F40000648006890ED480ADFED070AB4EEE00A83
:103F5000F1EE10FAE2D300BFD4E7000048000020E1
:103F600000000000CDCCCC3DCDCCCCBD10B50120A7
:103F7000084908700220487007484860062002F08F
:103F80001DFC062001F040FA0449086001F05CF8CD
:103F900010BD00004C000020E9140008480000207B
:103FA00038B505460C46009401226946284600F0C3
:103FB00043FF38BD10B501219FED0E0A062002F027
:103FC000B9FA0121B1EE000A062002F0BBFB012183
:103FD0009FED090A062002F0E9FA01219FED070A88
:103FE000062002F027FB01219FED050A062002F0C2
:103FF00065FB10BD9A99993E0000964300803BC531
:1040000000803B45F8B506460C4615468DF8004045
:104010008DF8015002226946304600F00DFFF8BDD0
:1040200070B52DED028B82B006460D46B0EE408A8B
:10403000092D01D05A2D0CD19FED230AC8EE000A9C
:104040009FED220A20EE800ABDEEC00A10EE104A53
:1040500023E0082D01D0582D0CD196ED380AC8EE7A
:10406000000A9FED1A0A20EE800ABDEEC00A10EE8B
:10407000104A12E07E2D08D19FED150A28EE000AA5
:10408000BDEEC00A10EE104A07E09FED100A28EEC0
:10409000000ABDEEC00A10EE104A8DF80050200E46
:1040A0008DF80100200C8DF80200200A8DF8030025
:1040B000E0B28DF8040005226946304600F0BCFEEF
:1040C00002B0BDEC028B70BD0080BB450000804B90
:1040D00033739642704700002DE9F04192B00546D7
:1040E000884616461F46002400BF00200090264840
:1040F000006840F08050244908600846006800F0DD
:104100008050009000BF00BF00BF002000901F48FB
:10411000006840F440401D4908600846006800F40B
:104120004040009000BF00BF012006900790022091
:104130000C9041050D91CDF838800F951096119790
:1041400006A8FEF78FFC04460CB100BFFEE7FEF7A1
:104150003DFA04460CB100BFFEE70F20019002209B
:104160000290002003904FF4A05004904FF4805030
:104170000590052101A8FEF77BFA04460CB100BFAB
:10418000FEE712B0BDE8F081403802400070004008
:1041900010B5FEF77FF910BD1448006840F47000B8
:1041A000124908601248006840F001001049086098
:1041B00000200F49083108600D4800680D4908408B
:1041C0000B4908600C48091D0860081F006820F4AE
:1041D0008020091F0860002005490C3108604FF05D
:1041E00000600249803908607047000088ED00E0F7
:1041F00000380240FFFFF6FE1030002410B50848DA
:10420000006800F0010048B1FDF7F4F8FFF720FB6B
:104210000348006820F001000149086010BD00005B
:104220001004004070B505460C4606480649086073
:104230000846446000218160C5600161FEF744FECC
:1042400070BD000000040040480300200022026806
:104250002C4B98420ED0B0F1804F0BD02A4B984295
:1042600008D02A4B984205D0294B984202D0294BBE
:10427000984201D1012300E000231BB122F070021B
:104280004B681A431F4B984220D0B0F1804F1DD08D
:104290001D4B98421AD01D4B984217D01C4B984288
:1042A00014D01C4B984211D01B4B98420ED01B4B84
:1042B00098420BD01A4B984208D01A4B984205D01E
:1042C000194B984202D0194B984201D1012300E0CA
:1042D00000231BB122F44072CB681A4302608B6842
:1042E000C3620B688362074B984202D0094B984225
:1042F00001D1012300E000230BB10B69036301230B
:104300004361704700000140000400400008004085
:10431000000C004000040140004001400044014006
:104320000048014000180040001C004000200040F0
:1043300030B50023012404FA01F3046A9C430462AB
:10434000046A02FA01F52C43046230BD10B504463C
:104350002068C06820F040002168C86094F83900E7
:10436000322803D1222084F8390002E0012084F8A9
:1043700039002046FFF748F9002010BD70B504460B
:10438000002694F83960222E01D0322E52D1A06836
:10439000B0F5805F13D1A56A206940B920684068F4
:1043A000C0F308002880A06A801CA06219E0206881
:1043B0004068C0B22880A06A401CA06211E0206959
:1043C00038B920684068C1B2A26A501CA06211705E
:1043D00007E02068406800F07F01A26A501CA062DC
:1043E0001170E08D401E80B2E08508BB2068C06877
:1043F00020F020002168C86094F83900322803D1E9
:10440000122084F839000EE02068C06820F4807023
:104410002168C8602068406920F001002168486177
:10442000012084F839002046FFF75CF8002070BDB9
:104430000020FCE70220FAE72DE9F04104460025C0
:104440002068056925F44055E0680543206805614A
:104450002068C56849F20C6085432169A06808435B
:1044600061690843E169084305432068C560206825
:10447000456925F44075A069054320684561E069F8
:10448000B0F5004F72D173492068884203D0724959
:104490002068884234D1FEF775FA00EBC00101EBC9
:1044A000001061684900B0FBF1F06421B0FBF1F647
:1044B000FEF768FA00EBC00101EB001061684900EB
:1044C000B0FBF1F7FEF75EFA00EBC00101EB001064
:1044D00061684900B0FBF1F06421B0FBF1F000EB42
:1044E000C00101EB0010A7EB8000322101EB0010AE
:1044F0006421B0FBF1F066F31F1021688860A6E02C
:10450000FEF72AFA00EBC00101EB001061684900D8
:10451000B0FBF1F06421B0FBF1F6FEF71DFA00EB01
:10452000C00101EB001061684900B0FBF1F7FEF734
:1045300013FA00EBC00101EB001061684900B0FB09
:10454000F1F06421B0FBF1F000EBC00101EB0010D1
:10455000A7EB8000322101EB00106421B0FBF1F0E9
:1045600066F31F102168886071E0FFE73949206811
:10457000884203D038492068884234D1FEF702FAD5
:1045800000EBC00101EB001061688900B0FBF1F0A5
:104590006421B0FBF1F6FEF7F5F900EBC00101EB89
:1045A000001061688900B0FBF1F7FEF7EBF900EB52
:1045B000C00101EB001061688900B0FBF1F06421DB
:1045C000B0FBF1F000EBC00101EB0010A7EB8000A5
:1045D000322101EB00106421B0FBF1F066F31F10F3
:1045E0002168886033E0FEF7B7F900EBC00101EB0A
:1045F000001061688900B0FBF1F06421B0FBF1F6B6
:10460000FEF7AAF900EBC00101EB00106168890018
:10461000B0FBF1F7FEF7A0F900EBC00101EB0010D1
:1046200061688900B0FBF1F06421B0FBF1F000EBB0
:10463000C00101EB0010A7EB8000322101EB00105C
:104640006421B0FBF1F066F31F1021688860BDE8BB
:10465000F0810000001001400014014010B5014637
:10466000002391F83930122B01D0322B2CD18868DD
:10467000B0F5805F0FD10A6A1088C0F308000C689B
:104680006060086918B9086A801C086209E0086A55
:10469000401C086205E00C6A601C086220780C6807
:1046A0006060C88C401E80B2C88458B90868C06871
:1046B00020F080000C68E0600868C06840F04000AE
:1046C0000C68E060002010BD0220FCE72DE9F041FD
:1046D00004460E4617461D464FF00008FDF7D4FE6F
:1046E00080469FBB2BE0681C48B32DB1FDF7CCFE84
:1046F000A0EB0800A84222D92068C06820F0800002
:104700002168C8602068C06820F020002168C86067
:104710002068C06820F480702168C8602068406903
:1047200020F0010021684861012084F8390000BFB1
:10473000002084F8380000BF0320BDE8F081206825
:1047400000683040B04202D1012001E003E00020C7
:104750000028C8D035E02AE0681C40B32DB1FDF731
:1047600093FEA0EB0800A84221D92068C06820F081
:1047700080002168C8602068C06820F0200021689F
:10478000C8602068C06820F480702168C860206814
:10479000406920F0010021684861012084F8390057
:1047A00000BF002084F8380000BF0320C5E7206860
:1047B00000683040B04201D1012000E00020002814
:1047C000CAD10020B9E7000070B500240F4D104891
:1047D000FEF798FC00BF03E0641CAC4200D904E083
:1047E0000B48FEF78BFC0128F6D100BF002403E044
:1047F000641CAC4200D906E0012206490448FEF7D9
:104800002DFE0028F4D100BF70BD0000FFFF0100A5
:10481000680000202000002070B500240F4D1048D3
:10482000FEF770FC00BF03E0641CAC4200D904E05A
:104830000B48FEF763FC0128F6D100BF002403E01B
:10484000641CAC4200D906E0012206490448FEF788
:1048500005FE0028F4D100BF70BD0000FFFF01007D
:10486000A80000202000002070B500240F4D104843
:10487000FEF748FC00BF03E0641CAC4200D904E032
:104880000B48FEF73BFC0128F6D100BF002403E0F3
:10489000641CAC4200D906E0012206490448FEF738
:1048A000DDFD0028F4D100BF70BD0000FFFF010056
:1048B000E80000202000002000BFFEE710B50346FE
:1048C0000C46607D01286ED100205871207D332870
:1048D0006AD01BDCA0F107002C286ED2DFE800F0C4
:1048E0005393989D6D6DF2A2A9AEB6BBC1C66D6D16
:1048F0006D6D6D6D6D6D6D6DC7CCD16D6D6DD6DBF4
:10490000E06D6D696D6D6DE5E6E7ECF3782846D0F6
:104910001CDC6B286BD00CDC5A2872D004DC3D28E0
:1049200070D0582849D1D8E0612856D06328F9D1F1
:1049300058E0722842D004DC6D285DD07028F1D197
:1049400025E0742827D07628ECD13CE088286ED06A
:104950000CDC83286CD004DC7A2839D07E28E1D1A5
:10496000E3E084286FD08728DCD1CAE090286BD0A0
:1049700004DC892869D08C28D4D116E091286FD026
:10498000FE28CFD1D6E0587B83F8D400F0E0987BA6
:1049900083F8D600ECE0D87B83F8D700E8E0187CF9
:1049A00083F8D800E4E0E4E092E0587C83F8D90092
:1049B000DEE0987C83F8DA00DAE0D8E093ED070ACD
:1049C00083ED390AD4E093ED080A83ED3A0ACFE08B
:1049D00093ED090A83ED3B0ACAE093ED0A0A83EDE1
:1049E0003E0AC5E093ED0B0A83ED3F0AC0E093ED6C
:1049F0000C0A83ED400ABBE093ED0D0A83ED410AFA
:104A0000B6E06FE0B0E093ED110A83ED460AAFE047
:104A100093ED120A83ED470AAAE093ED130A83EDA2
:104A2000480AA5E093ED140A83ED490AA0E088E066
:104A30005DE093ED150A83ED4A0A99E093ED160ABD
:104A400083ED4B0A94E057E065E05FE093ED170AD1
:104A500083ED4C0A8CE093ED180A83ED4D0A87E054
:104A60005EE093ED190A83ED4E0A81E080E093ED5C
:104A70001A0A83ED4F0A7BE093ED1B0A83ED500A7F
:104A800076E093ED1C0A83ED510A71E093ED1D0A67
:104A900083ED520A6CE093ED1E0A83ED530A67E042
:104AA00093ED1F0A83ED540A62E061E060E093ED4C
:104AB000200A83ED550A5BE093ED210A83ED560A47
:104AC00056E000E04DE093ED220A83ED570A4FE0F7
:104AD00093ED230A83ED580A4AE093ED260A83ED0D
:104AE0005B0A45E093ED270A83ED5C0A40E093ED15
:104AF000240A83ED590A3BE093ED250A83ED5A0A17
:104B000036E093ED280A83ED5D0A31E093ED290A42
:104B100083ED5E0A2CE093ED2A0A83ED5F0A27E01D
:104B200093ED2B0A83ED600A22E093ED2C0A83EDCE
:104B3000610A1DE00020A3F80801184601F09AFE62
:104B400016E09FED0C0A83ED480A9FED0B0A83EDFA
:104B5000590A9FED0A0A83ED5A0A012183F8D210FF
:104B600006E00120587103E0187B187000BF00BFF9
:104B700000BF10BD000000000000FE420000FEC2A9
:104B800003B401984100009850EAC12018BF0420E6
:104B90004A0D18BF40F0010040F2FF72B2EB515FC6
:104BA00008BF40F00200012808BF052002B070478E
:104BB00030380A2801D2012070470020704700BF1A
:104BC00070472DE9F04781460C4617464FF0000824
:104BD0000025484600F018FC054615B90420BDE83C
:104BE000F08795F8D400A04201D10020F7E76C735C
:104BF000224607212846FFF705FA06460EB1304641
:104C0000EDE727B9C82000F049F93046E7E700BFD3
:104C100095F8D400A04206D0404608F101084FF6AE
:104C2000FF718842F4D34FF6FF70804501D3032013
:104C3000D5E73046D3E700000848FEF783F90020A7
:104C400001F0D4FE4FF4167000F01CF900F082F968
:104C500003A0FBF72DFB00BFFEE700004803002088
:104C60000D0A0D0A0D0A000070B50446207800F008
:104C7000CBFB054605B970BD0120E871207D5328A6
:104C800076D03BDC1D2874D018DC162872D00DDCE1
:104C9000052870D005DC80B302286DD004286CD1C3
:104CA00095E006286AD01528F9D193E01738062830
:104CB00063D2DFE800F091929394959635286FD0F7
:104CC0000EDC24286DD006DC1E286BD022286AD08A
:104CD0002328E4D189E02B285DD03428DFD186E079
:104CE000382871D004DC36286FD03728D7D181E03E
:104CF00039286BD04528D2D156E045E0792848D0F4
:104D00001CDC642858D00EDC5F2852D006DC552805
:104D10003BD0592871D05B282FD16FE0602849D053
:104D200062282AD147E06C380C287DD2DFE800F0F9
:104D3000457C467C7C2F7C3E7C307C3F8B2829D078
:104D40000EDC85285CD006DC7B2831D07D2856D04F
:104D50007F2869D159E0862853D08A2864D151E050
:104D6000942857D00BDC92284DD093285CD14BE08F
:104D70001BE037E02FE02BE051E055E029E0B028C0
:104D800004D0FF2850D11AE000BF00BF00BF00BF11
:104D900000BF00BF00BF21462846FEF726FE48E0C0
:104DA00026E023E01FE01FE000BF00BF00BF00BF00
:104DB00000BF00BF00BF00BF00BF00BF00BF214653
:104DC0002846FEF755FE34E015E012E014E000BF7F
:104DD00000BF00BF00BF00BF00BF00BF00BF00BFDB
:104DE00000BF00BF00BF00BF00BF00BF00BF00BFCB
:104DF00000BF00BF00BF00BF00BF00BF00BF00BFBB
:104E000000BF00BF00BF00BF00BF21462846FEF71D
:104E1000C1FE0EE021462846FFF71EF809E02146B4
:104E20002846FFF75DF804E021462846FFF746FDD7
:104E300000BF00BF00BF1EE72DE9F04104460E464B
:104E40001746002500E06D1C2078A1683A464B68A3
:104E50003146984718B1A0684078A842F3D8A068B6
:104E60004078A84202D80220BDE8F0810020FBE78C
:104E700010B504460420FDF7F9FF0148046010BD99
:104E80001800002030B50446002504E04FF47A7085
:104E900000F004F86D1CA542F8D330BD70B5034690
:104EA00000224FF0E02675690D4E366803FB06F4CC
:104EB0004FF0E026B16910E04FF0E026B06988427B
:104EC0000BD0884202D20E1A324402E02E1A0E444F
:104ED00032440146A24200D300E0EDE700BF70BDBE
:104EE000180000202DE9F04107460026002438462E
:104EF00000F08AFA044614B90420BDE8F0810121CB
:104F0000384601F077F805460DB12846F5E794F8E4
:104F1000DA0008B90020F0E70021A17400222A215C
:104F20002046FFF76FF805460DB12846E5E700BFBC
:104F300094F8DA0028B13046761C6FF07F41884241
:104F4000F6D36FF07F40864201D30320D5E7284691
:104F5000D3E7000010B500240AE004EB041101EBD4
:104F60004411054A12F83100FFF7BCFF601CC4B2BF
:104F7000012CF2DB10BD0000B40100202DE9F0414E
:104F8000074600260024384600F03EFA044614B9CD
:104F90000420BDE8F0810121384601F02BF80546D8
:104FA0000DB12846F5E794F8DA00012800D11CE09D
:104FB0000121A17401222A212046FFF723F805468A
:104FC0000DB12846E5E700BF94F8DA00012805D0C6
:104FD0003046761C6FF07F418842F5D36FF07F40FA
:104FE000864201D30320D4E700BF0120A071012134
:104FF000384600F0ABF80121384600F047F894F845
:10500000D50028B9227840F24B110D48FBF750F932
:105010000121384600F094F994ED380AB5EEC00A43
:10502000F1EE10FA05D122784FF4A9710548FBF78B
:105030003FF90021384601F03DF92846A9E7000074
:105040007C710008C071000810B500240AE004EB70
:10505000041101EB4411054A12F83100FFF78EFFED
:10506000601CC4B2012CF2DB10BD0000B4010020B2
:1050700000BF054A126802F04002002AF9D0C2B20D
:10508000014B5A6070470000001001402DE9F041CB
:1050900080460E4600270024404600F0B5F904463D
:1050A00014B90420BDE8F08100212175B02120460B
:1050B000FEF776FF05460DB12846F3E726B9C8206E
:1050C000FFF7ECFE2846EDE700BF207D012805D064
:1050D00038467F1C4FF6FF718842F6D34FF6FF70BB
:1050E000874201D30320DDE72846DBE72DE9F041C5
:1050F00080460E4600270024404600F085F904460D
:1051000014B90420BDE8F0810021E1745521204646
:10511000FEF746FF05460DB12846F3E726B9C8203D
:10512000FFF7BCFE2846EDE700BFE07C012805D074
:1051300038467F1C4FF6FF718842F6D34FF6FF705A
:10514000874201D30320DDE72846DBE72DE9F04164
:1051500080460E4600270024404600F055F90446DC
:1051600014B90420BDE8F081002184F8D110022197
:105170002046FEF715FF05460DB12846F2E726B991
:10518000C820FFF78BFE2846ECE700BF94F8D1005B
:10519000012805D038467F1C4FF6FF718842F5D3B1
:1051A0004FF6FF70874201D30320DBE72846D9E79B
:1051B0002DE9F04180460E4600270024404600F0CD
:1051C00023F9044614B90420BDE8F081002184F8D5
:1051D000381073212046FEF7E3FE05460DB1284640
:1051E000F2E726B9C820FFF759FE2846ECE700BFD2
:1051F00094F83800012805D038467F1C4FF6FF711F
:105200008842F5D34FF6FF70874201D30320DBE7D6
:105210002846D9E72DE9F04180460E4600270024B4
:10522000404600F0F1F8044614B90420BDE8F081CE
:10523000002184F8B81016212046FEF7B1FE05467D
:105240000DB12846F2E726B9C820FFF727FE284609
:10525000ECE700BF94F8B800012805D038467F1C61
:105260004FF6FF718842F5D34FF6FF70874201D3A6
:105270000320DBE72846D9E72DE9F04180460E46BA
:1052800000270024002184F8B710404600F0BCF845
:10529000044614B90420BDE8F08115212046FEF72C
:1052A0007FFE05460DB12846F5E726B9C820FFF771
:1052B000F5FD2846EFE700BF94F8B700012805D0B8
:1052C00038467F1C4FF6FF718842F5D34FF6FF70CA
:1052D000874201D30320DEE72846DCE72DE9F041D1
:1052E00080460E4600270024404600F08DF8044614
:1052F00014B90420BDE8F081002184F8C9105921B7
:105300002046FEF74DFE05460DB12846F2E726B9C8
:10531000C820FFF7C3FD2846ECE700BF94F8C9009A
:10532000012805D038467F1C4FF6FF718842F5D31F
:105330004FF6FF70874201D30320DBE72846D9E709
:105340002DE9F04180460E4600270024404600F03B
:105350005BF8044614B90420BDE8F081002184F80C
:10536000401053212046FEF71BFE05460DB128468E
:10537000F2E726B9C820FFF791FD2846ECE700BF09
:1053800094F84000012805D038467F1C4FF6FF7185
:105390008842F5D34FF6FF70874201D30320DBE745
:1053A0002846D9E72DE9F04180460E460027002423
:1053B000404600F029F8044614B90420BDE8F08105
:1053C000002184F84310FF212046FEF7E9FD054641
:1053D0000DB12846F2E726B9C820FFF75FFD284641
:1053E000ECE700BF94F84300012805D038467F1C45
:1053F0004FF6FF718842F5D34FF6FF70874201D315
:105400000320DBE72846D9E70246002111E001EB43
:10541000011000EB4110094B13F83000904206D107
:1054200001EB011000EB411003EBC0007047481C7A
:10543000C1B20129EBDB0020F8E70000B401002035
:105440002DE9F04180460E46002700244046FFF734
:10545000DBFF044614B90420BDE8F081002184F884
:105460003B1062212046FEF79BFD05460DB1284604
:10547000F2E726B9C820FFF711FD2846ECE700BF88
:1054800094F83B00012805D038467F1C4FF6FF7189
:105490008842F5D34FF6FF70874201D30320DBE744
:1054A0002846D9E72DE9F04180460E460027002422
:1054B0004046FFF7A9FF044614B90420BDE8F08177
:1054C000002184F83C1064212046FEF769FD054662
:1054D0000DB12846F2E726B9C820FFF7DFFC2846C1
:1054E000ECE700BF94F83C00012805D038467F1C4B
:1054F0004FF6FF718842F5D34FF6FF70874201D314
:105500000320DBE72846D9E72DE9F04180460E4627
:10551000002700244046FFF777FF044614B9042013
:10552000BDE8F081002184F8421060212046FEF79A
:1055300037FD05460DB12846F2E726B9C820FFF72A
:10554000ADFC2846ECE700BF94F84200012805D0E6
:1055500038467F1C4FF6FF718842F5D34FF6FF7037
:10556000874201D30320DBE72846D9E72DE9F04144
:1055700080460E46002700244046FFF745FF0446BC
:1055800014B90420BDE8F081002184F8CF107F21F8
:105590002046FEF705FD05460DB12846F2E726B97F
:1055A000C820FFF77BFC2846ECE700BF94F8CF004B
:1055B000012805D038467F1C4FF6FF718842F5D38D
:1055C0004FF6FF70874201D30320DBE72846D9E777
:1055D0002DE9F04180460E46002700244046FFF7A3
:1055E00013FF044614B90420BDE8F081002184F8BB
:1055F000C71085212046FEF7D3FC05460DB128468D
:10560000F2E726B9C820FFF749FC2846ECE700BFBF
:1056100094F8C700012805D038467F1C4FF6FF716B
:105620008842F5D34FF6FF70874201D30320DBE7B2
:105630002846D9E72DE9F04180460E460027002490
:105640004046FFF7E1FE044614B90420BDE8F081AE
:10565000002184F8C81086212046FEF7A1FC0546EB
:105660000DB12846F2E726B9C820FFF717FC2846F7
:10567000ECE700BF94F8C800012805D038467F1C2D
:105680004FF6FF718842F5D34FF6FF70874201D382
:105690000320DBE72846D9E72DE9F04180460E4696
:1056A000002700244046FFF7AFFE044614B904204B
:1056B000BDE8F081002184F83B106C212046FEF704
:1056C0006FFC05460DB12846F2E726B9C820FFF762
:1056D000E5FB2846ECE700BF94F83B00012805D025
:1056E00038467F1C4FF6FF718842F5D34FF6FF70A6
:1056F000874201D30320DBE72846D9E72DE9F041B3
:1057000080460E46002700244046FFF77DFE0446F3
:1057100014B90420BDE8F081002184F83E106E2108
:105720002046FEF73DFC05460DB12846F2E726B9B6
:10573000C820FFF7B3FB2846ECE700BF94F83E0013
:10574000012805D038467F1C4FF6FF718842F5D3FB
:105750004FF6FF70874201D30320DBE72846D9E7E5
:105760002DE9F04180460E46002700244046FFF711
:105770004BFE044614B90420BDE8F081002184F8F2
:1057800041105F212046FEF70BFC05460DB128466F
:10579000F2E726B9C820FFF781FB2846ECE700BFF7
:1057A00094F84100012805D038467F1C4FF6FF7160
:1057B0008842F5D34FF6FF70874201D30320DBE721
:1057C0002846D9E72DE9F04180460E4600270024FF
:1057D0004046FFF719FE044614B90420BDE8F081E5
:1057E000002184F8B61006212046FEF7D9FB0546B5
:1057F0000DB12846F2E726B9C820FFF74FFB28462F
:10580000ECE700BF94F8B600012805D038467F1CAD
:105810004FF6FF718842F5D36FF07F40874201D386
:105820000320DBE72846D9E72DE9F04180460E4604
:10583000002700244046FFF7E7FD044614B9042082
:10584000BDE8F081002184F83A107B212046FEF764
:10585000A7FB05460DB12846F2E726B9C820FFF799
:105860001DFB2846ECE700BF94F83A00012805D05C
:1058700038467F1C4FF6FF718842F5D34FF6FF7014
:10588000874201D30320DBE72846D9E72DE9F04121
:1058900080460E46002700244046FFF7B5FD04462B
:1058A00014B90420BDE8F081002184F8BC101A214D
:1058B0002046FEF775FB05460DB12846F2E726B9EE
:1058C000C820FFF7EBFA2846ECE700BF94F8BC00CD
:1058D000012805D038467F1C4FF6FF718842F5D36A
:1058E0004FF6FF70874201D30320DBE72846D9E754
:1058F0002DE9F04180460E46002700244046FFF780
:1059000083FD044614B90420BDE8F081002184F829
:10591000BB1019212046FEF743FB05460DB1284672
:10592000F2E726B9C820FFF7B9FA2846ECE700BF2E
:1059300094F8BB00012805D038467F1C4FF6FF7154
:105940008842F5D34FF6FF70874201D30320DBE78F
:105950002846D9E72DE9F04180460E46002700246D
:105960004046FFF751FD044614B90420BDE8F0811C
:10597000002184F8CC108A212046FEF711FB054651
:105980000DB12846F2E726B9C820FFF787FA284666
:10599000ECE700BF94F8CC00012805D038467F1C06
:1059A0004FF6FF718842F5D34FF6FF70874201D35F
:1059B0000320DBE72846D9E72DE9F04180460E4673
:1059C000002700244046FFF71FFD044614B90420B9
:1059D000BDE8F081002184F8C61039212046FEF789
:1059E000DFFA05460DB12846F2E726B9C820FFF7D1
:1059F00055FA2846ECE700BF94F8C600012805D008
:105A000038467F1C4FF6FF718842F5D34FF6FF7082
:105A1000874201D30320DBE72846D9E72DE9F0418F
:105A200080460E46002700244046FFF7EDFC044662
:105A300014B90420BDE8F081002184F8C510382194
:105A40002046FEF7ADFA05460DB12846F2E726B925
:105A5000C820FFF723FA2846ECE700BF94F8C500FA
:105A6000012805D038467F1C4FF6FF718842F5D3D8
:105A70004FF6FF70874201D30320DBE72846D9E7C2
:105A80002DE9F04180460E46002700244046FFF7EE
:105A9000BBFC044614B90420BDE8F081002184F861
:105AA000BE101D212046FEF77BFA05460DB12846A3
:105AB000F2E726B9C820FFF7F1F92846ECE700BF66
:105AC00094F8BE00012805D038467F1C4FF6FF71C0
:105AD0008842F5D34FF6FF70874201D30320DBE7FE
